:100000000C942E000C944B000C944B000C944B0061
:100010000C944B000C944B000C944B000C94F40487
:100020000C944B000C944B000C944B000C944B0024
:100030000C944B000C944B000C944B000C944B0014
:100040000C944B000C944B000C944B000C944B0004
:100050000C944B000C944B000C944B0011241FBECD
:10006000CFEFD0E1DEBFCDBF11E0A0E0B1E0EAED1F
:10007000FEE002C005900D92AE31B107D9F721E044
:10008000AEE1B1E001C01D92AF32B207E1F70E94CC
:1000900023070C946B070C940000009759F030E094
:1000A00020E045E04A95F1F700002F5F3F4F8217AF
:1000B0009307B9F70895009769F030E020E0EFE981
:1000C000FFE03197F1F700C000002F5F3F4F82172C
:1000D0009307A9F70895FF920F931F93CF93DF9390
:1000E000EB01F42E869F9001879F300D1124A1E82B
:1000F000B0E80E945C078C01000F012F001F110B5C
:100100001195842F0E94FA060115110551F090E017
:1001100080E025E02A95F1F70000019608171907FD
:10012000C1F78F2D0E940007C01BD10B51F090E04A
:1001300080E025E02A95F1F700000196C817D9075D
:10014000C1F7DF91CF911F910F91FF900895EAE7DA
:10015000F0E0808187688083ECE7F0E08081806652
:100160008083089590917C00987F90937C0090917B
:100170007C00892B80937C0080917A00806480933E
:100180007A0080917A0086FDFCCF809179000895F5
:100190008DB18F7C8DB985E08A95F1F700006D9A5D
:1001A000759885E08A95F1F700006C9A749885E05F
:1001B0008A95F1F7000008956C9885E08A95F1F72B
:1001C00000006D9885E08A95F1F7000008956D981C
:1001D00085E08A95F1F7000065990DC06C9885E07F
:1001E0008A95F1F700006C9A749885E08A95F1F78A
:1001F0000000659BF3CF6C9808956C9885E08A9514
:10020000F1F700006C9A749885E08A95F1F7000088
:1002100008951F93CF93DF93C82FD62F142F0E94DA
:10022000E7000E94C80087E013C06D9895E09A959A
:10023000F1F700006C9895E09A95F1F700006C9A40
:10024000749895E09A95F1F70000CC0F815029F051
:10025000C6FDEBCF6D9A7598E9CF6D9A759885E0DC
:100260008A95F1F700006C9895E09A95F1F70000F7
:100270006C9A749885E08A95F1F700006D9895E086
:100280009A95F1F700006C9865994BC085E08A95C6
:10029000F1F700006C9A749895E09A95F1F70000D8
:1002A00088E014C06D9A759895E09A95F1F7000072
:1002B0006C9895E09A95F1F700006C9A749895E027
:1002C0009A95F1F70000DD0F815021F0D7FFEACFBA
:1002D0006D98EACF6D9885E08A95F1F700006C98EB
:1002E00065991AC095E09A95F1F700006C9A749898
:1002F00085E08A95F1F70000112351F06C9895E0A4
:100300009A95F1F700006D9885E08A95F1F7000065
:10031000DF91CF911F91089580E191E00E94EB035E
:10032000FFCF84E091E00E94EB03FFCFFC01662346
:10033000D1F14FEF460F50E04F5F5F4F480F591F0D
:10034000908128E016C06D9A759885E08A95F1F73E
:1003500000006C9885E08A95F1F700006C9A74981B
:1003600085E08A95F1F700009081990F90832150E4
:1003700021F097FFE8CF6D98E8CF31966D9885E032
:100380008A95F1F700006C98659918C085E08A9508
:10039000F1F700006C9A749885E08A95F1F70000F7
:1003A0004E175F0769F66C9885E08A95F1F70000B3
:1003B0006D9885E08A95F1F7000008958DE091E051
:1003C0000E94EB03FFCF0F931F93CF93DF93082F70
:1003D000EB01142F0E94C80087E013C06D9895E0D0
:1003E0009A95F1F700006C9895E09A95F1F7000066
:1003F0006C9A749895E09A95F1F70000000F81507F
:1004000029F006FDEBCF6D9A7598E9CF6D9885E0E0
:100410008A95F1F700006C9895E09A95F1F7000045
:100420006C9A749885E08A95F1F700006D9895E0D4
:100430009A95F1F700006C9865995AC085E08A9505
:10044000F1F700006C9A749895E09A95F1F7000026
:100450006D9885E08A95F1F700001123B1F12FEF37
:10046000210F30E02F5F3F4F2C0F3D1F98E0888118
:10047000880F88836C9885E08A95F1F70000659B6A
:1004800003C088818160888385E08A95F1F7000048
:100490006C9A749885E08A95F1F70000915039F7CD
:1004A0006D9A759895E09A95F1F700006C9885E043
:1004B0008A95F1F700006C9A749895E09A95F1F797
:1004C000000021962C173D0789F685E08A95F1F703
:1004D00000006C9895E09A95F1F700006D9885E022
:1004E0008A95F1F70000DF91CF911F910F91089548
:1004F00085E191E00E94EB03FFCFCF93DF931F9242
:10050000CDB7DEB7498340E00E94090161E0CE012A
:1005100001960E9496010F90DF91CF9108951F934D
:10052000CF93DF931F92CDB7DEB7182F41E00E9423
:10053000090141E0BE016F5F7F4F812F0E94E301FF
:1005400089810F90DF91CF911F91089561E08CE137
:100550000C948F0263E08CE10C948F0265E08CE1D7
:100560000C948F028AE08A95F1F700C0449A8AE0E1
:100570008A95F1F700C044988AE08A95F1F700C0A7
:100580000895F89482B98AE08A95F1F700C0449AF8
:100590008AE08A95F1F700C044988AE08A95F1F7DD
:1005A00000C0789408958F98F89482B98AE08A956B
:1005B000F1F700C0449A8AE08A95F1F700C04498A8
:1005C0008AE08A95F1F700C0789408958F9AF8949C
:1005D00082B98AE08A95F1F700C0449A8AE08A9548
:1005E000F1F700C044988AE08A95F1F700C078944A
:1005F0000895803110F4623008F008956E5F6295BE
:10060000660F660F607C860F8F98F89482B98AE037
:100610008A95F1F700C0449A8AE08A95F1F700C004
:1006200044988AE08A95F1F700C0789485EC8A9521
:10063000F1F7000008953C9A879A8FEF81B98FE116
:100640009EE40197F1F700C000008F98F89488E3CA
:1006500082B99AE09A95F1F700C0449AEAE0EA95E7
:10066000F1F700C04498FAE0FA95F1F700C07894E9
:10067000EFE7F2E03197F1F700C000008F98F894AF
:1006800082B9FAE0FA95F1F700C0449A9AE09A9597
:10069000F1F700C04498EAE0EA95F1F700C07894D9
:1006A000EFE7F2E03197F1F700C000008F98F8947F
:1006B00082B9FAE0FA95F1F700C0449A9AE09A9567
:1006C000F1F700C04498EAE0EA95F1F700C07894A9
:1006D000EFE7F2E03197F1F700C000008F98F8944F
:1006E00098E092B9FAE0FA95F1F700C0449A9AE0DE
:1006F0009A95F1F700C04498EAE0EA95F1F700C056
:100700007894EFE7F2E03197F1F700C000008F989E
:10071000F89491E092B9FAE0FA95F1F700C0449AA2
:100720009AE09A95F1F700C04498EAE0EA95F1F76B
:1007300000C07894EFE7FEE33197F1F700C00000C6
:100740008F98F89496E092B9FAE0FA95F1F700C024
:10075000449A9AE09A95F1F700C04498EAE0EA9545
:10076000F1F700C07894EFE7F2E03197F1F700C0BD
:1007700000008F98F89482B9FAE0FA95F1F700C07A
:10078000449A8AE08A95F1F700C044989AE09A95D5
:10079000F1F700C07894EFE8F1E03197F1F700C08D
:1007A00000008F98F8948CE082B9FAE0FA95F1F79E
:1007B00000C0449A8AE08A95F1F700C044989AE014
:1007C0009A95F1F700C07894EFE8F1E03197F1F7EE
:1007D00000C000000895DC019C91992301F120E004
:1007E0008F9AF89492B98AE08A95F1F700C0449AFA
:1007F0009AE09A95F1F700C044988AE08A95F1F75B
:1008000000C078948FE792E00197F1F700C00000F4
:100810002F5FFD01E20FF11D90819111E1CF08954D
:100820001F93CF93DF939C01892B09F45AC045E0B5
:1008300011E0EFE0F7E2CAE0D0E0C901BF016F5F6D
:100840007F4F0E942E07662349F1E217F30770F5E8
:10085000605D8F9AF89462B9BAE0BA95F1F700C07A
:10086000449A2AE02A95F1F700C04498AAE0AA9594
:10087000F1F700C07894AFE7B2E01197F1F700C04C
:10088000000010E09C01CF01BE010E944207FB0165
:10089000415099F6DF91CF911F910895E217F30728
:1008A00018F41111EFCFD4CF1111EDCF605D8F9AF5
:1008B000F89462B9BAE0BA95F1F700C0449A8AE0B8
:1008C0008A95F1F700C044989AE09A95F1F700C034
:1008D0007894AFE7B2E01197F1F700C0000010E0A4
:1008E000D2CF8F9AF89480E382B92AE02A95F1F763
:1008F00000C0449A8AE08A95F1F700C044989AE0D3
:100900009A95F1F700C07894AFE7B2E01197F1F74C
:1009100000C00000DF91CF911F9108958F98F89447
:1009200081E082B98AE08A95F1F700C0449A9AE0A2
:100930009A95F1F700C044988AE08A95F1F700C0D3
:1009400078948FE79EE30197F1F700C000000895C7
:100950005D9A5C980895382F262F4FEF6403C001ED
:10096000112464E670E00E944207311107C06093D1
:10097000B300121664F45C9A5D98089567BD121670
:100980001CF45E9A5F9808955F9A5E9808950C949F
:10099000A804CF93DF93C3EBD0E018820E94A80491
:1009A00017BC5F9A5E9884B1806984B98AB1806F00
:1009B0008AB9E0EBF0E08081886680838081826084
:1009C000808384B5886684BD84B5826084BD8AE0F6
:1009D00087BD8883DF91CF9108955C9A5D982C9AAA
:1009E0005F9A5E982F9A08951F920F920FB60F92FA
:1009F00011242F933F934F935F938F939F93EF9384
:100A0000FF9340911E01542F5695852F90E021E0D1
:100A100030E001C0220F5A95EAF740FD27C040910F
:100A2000880050918900880F991FFC01E95DFE4FF5
:100A300080819181840F951F909389008093880015
:100A400088B1282B28B980911E018F5F8770809311
:100A50001E01FF91EF919F918F915F914F913F9177
:100A60002F910F900FBE0F901F9018954091880006
:100A700050918900880F991FFC01E15EFE4F808133
:100A80009181840F951F909389008093880088B18D
:100A90002095282328B9D7CF90E02AE0629FB001A3
:100AA00011246C53764F880F991FFC01E95DFE4FAE
:100AB00071836083815E9E4F24ED30E3261B370BEC
:100AC000FC01318320830895A7E2B1E024EC39E0F2
:100AD00011963C932E93EFE1F1E080E197E2918350
:100AE000808313963C932E9312979383828315965B
:100AF0003C932E9314979583848317963C932E935F
:100B000016979783868387B18F6087B9E1E8F0E015
:100B10001082808182608083EFE6F0E080818260D5
:100B20008083789408958CB18095881F8827881FCA
:100B30000895282F30E08E3010F080E00895F901FC
:100B4000EC55FA4F0C945607C105C105CC05CC05F0
:100B5000D705DC05DC05DE05DE05DE05E905B205A9
:100B6000B205BD0583B190E02950310902C09595C9
:100B700087952A95E2F78170089583B186958170F3
:100B800008952CB130E0A90102C0559547958A958A
:100B9000E2F7CA018170089582B390E02F5F3F4F62
:100BA00002C0959587952A95E2F7817008958CB1DA
:100BB00086FB882780F9089523B1E4CF86B190E0C1
:100BC0002250310902C0959587952A95E2F78170E8
:100BD000089583B181700895282F30E08E30B0F4ED
:100BE000F901EB50FA4F0C9456071606160622062A
:100BF00022063006420642063406340634064E0605
:100C0000070607060306611165C02198089529505B
:100C1000310981E090E001C0880F2A95EAF794B18C
:100C2000662309F43FC0892B84B9089521E030E0A0
:100C300001C0220F8A95EAF78DB16623C9F1282BEE
:100C40002DB908952F5F3F4F81E090E001C0880FDC
:100C50002A95EAF793B3662379F1892B83BB08952C
:100C6000662391F16E9A08952250310981E090E057
:100C700001C0880F2A95EAF797B1662309F1892BFD
:100C800087B9089521E030E001C0220F8A95EAF784
:100C900084B16623D9F0282B24B90895662331F056
:100CA000209A08958095892384B9089520980895FD
:100CB000209528232DB908958095892383BB089515
:100CC0008095892387B908956E98089520952823E3
:100CD00024B90895219A0895282F30E08E30B0F479
:100CE000F901EB58F94F0C94560796069606A206A2
:100CF000A206B006C206C206B406B406B406CE0604
:100D0000870687068306611165C0299808952950D2
:100D1000310981E090E001C0880F2A95EAF795B18A
:100D2000662309F43FC0892B85B9089521E030E09E
:100D300001C0220F8A95EAF78EB16623C9F1282BEC
:100D40002EB908952F5F3F4F81E090E001C0880FDA
:100D50002A95EAF794B3662379F1892B84BB089529
:100D6000662391F1769A08952250310981E090E04E
:100D700001C0880F2A95EAF798B1662309F1892BFB
:100D800088B9089521E030E001C0220F8A95EAF782
:100D900085B16623D9F0282B25B90895662331F053
:100DA000289A08958095892385B9089528980895EB
:100DB000209528232EB908958095892384BB089512
:100DC0008095892388B908957698089520952823D9
:100DD00025B90895299A0895811104C0613031F030
:100DE000A0980895613021F0A1980895A09A0895DF
:100DF000A19A0895882311F0A19A0895A09A0895C0
:100E0000882311F0A1980895A0980895529A83B369
:100E1000836083BB779A0E94A7000E941B030E94F5
:100E200064050E94C90441E06AE28CE10E947D02EF
:100E30002FEF81EE94E0215080409040E1F700C018
:100E400000000C94E7000E940607C0E040E068EE56
:100E500073E08C2F0E946B00CF5FF8CFAA1BBB1BE7
:100E600051E107C0AA1FBB1FA617B70710F0A61BAA
:100E7000B70B881F991F5A95A9F780959095BC01CB
:100E8000CD01089597FB072E16F4009407D077FD47
:100E900009D00E942E0707FC05D03EF4909581955D
:100EA0009F4F0895709561957F4F0895EE0FFF1F36
:100EB0000590F491E02D0994A29FB001B39FC00169
:100EC000A39F700D811D1124911DB29F700D811D76
:0A0ED0001124911D0895F894FFCF3E
:100EDA0001000100616464724E41434B0077725F06
:0E0EEA004E41434B00726561644E41434B0024
:00000001FF
